:020000040800F2
:100000003008002005010008DD0600086B05000827
:1000100019060008D5020008C50F000800000000FE
:10002000000000000000000000000000750E000845
:100030000D03000800000000090D0008610F000812
:100040001F0100081F0100081F0100081F01000810
:100050001F0100081F01000885030008C1030008F4
:100060001F0100081F0100081F0100081F010008F0
:100070001F0100081F0100081F0100081F010008E0
:100080001F0100081F0100081F0100081F010008D0
:100090001F0100081F0100081F0100081F010008C0
:1000A0001F0100081F0100081F0100081F010008B0
:1000B0001F0100081F0100081F0100081F010008A0
:1000C0001F0100081F0100081F0100081F01000890
:1000D0001F0100081F0100081F0100081F01000880
:1000E0001F0100081F0100081F010008DFF810D0E1
:1000F00000F0C2F800480047E70F0008AFF30080A7
:10010000300800200648804706480047FEE7FEE723
:10011000FEE7FEE7FEE7FEE7FEE7FEE7FEE7FEE7B7
:10012000650F0008ED00000838B5D0E90221491E2E
:1001300001EB410102EBC1014268C1EB011102EB8D
:1001400081010268C1EB011102EB8102D0E90431A7
:1001500001EB410103EB81013023A1F5527191FBC9
:10016000F3F4174D6C4302EBC41291FBF3F403FB61
:10017000141100921A2902DB124B1A4400920C222D
:1001800091FBF2F3104C6343009C04EBC313009308
:1001900091FBF2F302FB13110C4A08E0491E40F2F6
:1001A000A324535C6343009C04EBC3130093002916
:1001B000F4DC0146684600F019F8009838BD0000EC
:1001C0003F0C0F008051010067C20300381B00087C
:1001D00010B5002200E0521C835C8C5CA34201D16C
:1001E000002BF8D1D8B2E1B2401A10BD10B50068AA
:1001F0003C22B0FBF2F302FB1303B0FBF2F00B6006
:10020000B0FBF2F302FB1303B0FBF2F018224B60D9
:10021000B0FBF2F302FB1303B0FBF2F0021D8B60A4
:100220000723B2FBF3F403FB1422800040F2B55322
:1002300000F66C308A61B0FBF3F2B0FBF3F403FB21
:100240001400443280084A61C8613B2802D39207F7
:1002500000D0401C0022074C13460A61E25C824237
:1002600003D8801A5B1C0B61F8E7401CC860084685
:1002700010BD0000441B0008064C074D06E0E06876
:1002800040F0010394E8070098471034AC42F6D3DD
:10029000FFF730FF6C1B00088C1B000808B50146F7
:1002A00000200090034800900098084400900098B7
:1002B000008808BD006C004008B500220092044A86
:1002C0000092009A02440092009A116008BD00005A
:1002D000006C004000BFFEE708B50121082000F0D7
:1002E00025FD10208DF803000002ADF8000003206A
:1002F0008DF802006946044800F09AF84FF48051E6
:10030000014800F02BF908BD000C014070470000C7
:1003100010B506230FA202211F2000F0B9FB08230D
:100320000FA21221242000F0B3FB06230EA22A21E3
:100330000A2000F0ADFB062310A23821502000F067
:10034000A7FB06230EA238216E2000F0A1FB00F0CF
:1003500081FC10BD456469742020416C61726D00A0
:100360005858203A205858005265702020372031C4
:1003700020322033203420352036000053455400ED
:1003800044454C0010B5012000F03EF8012812D180
:100390000121094800F0D7F850B90221064800F0C1
:1003A000D2F828B905480088401E00B203490880E9
:1003B000012000F023F810BD000C01402E000020A9
:1003C00010B5022000F020F8012812D102210948BE
:1003D00000F0B9F850B90121064800F0B4F828B986
:1003E00005480088401C00B203490880022000F044
:1003F00005F810BD000C01402E00002001490860E6
:100400007047000014040140014600200022074B01
:100410001B6803EA0102054B14331B680B4013B140
:100420000AB1012000E000207047000000040140F4
:100430002DE9F0410246002500260020002300247B
:10044000002791F803C00CF00F0591F803C00CF0E1
:10045000100CBCF1000F03D091F802C04CEA050566
:1004600091F800C0BCF1000F31D0146800202BE0DF
:100470004FF0010C0CFA00F3B1F800C00CEA0306CF
:100480009E4220D183004FF00F0C0CFA03F7BC43BF
:1004900005FA03FC4CEA040491F803C0BCF1280FF0
:1004A00006D14FF0010C0CFA00FCC2F814C00AE0AF
:1004B00091F803C0BCF1480F05D14FF0010C0CFAC4
:1004C00000FCC2F810C0401C0828D1D31460B1F859
:1004D00000C0BCF1FF0F34DD546800202EE000F1B5
:1004E000080C4FF0010808FA0CF3B1F800C00CEA50
:1004F00003069E4221D183004FF00F0C0CFA03F744
:10050000BC4305FA03FC4CEA040491F803C0BCF1B7
:10051000280F05D100F1080C08FA0CF8C2F8148075
:1005200091F803C0BCF1480F07D100F1080C4FF05F
:10053000010808FA0CF8C2F81080401C0828CED335
:100540005460BDE8F0810246002093680B400BB177
:10055000012000E000207047416170470161704751
:100560000AB1016100E04161704700BFFEE7000091
:1005700008B50121084600F0D9FB0121042000F054
:10058000D5FB0121082000F0D1FB48208DF80300A5
:100590004FF44060ADF8000003208DF8020069467A
:1005A0000548FFF745FFC020ADF800006946034845
:1005B000FFF73EFF08BD0000000C014000080140AD
:1005C00008B50121042000F0B1FB0121102000F04A
:1005D000ADFB10208DF803000620ADF800000320CD
:1005E0008DF8020069460A48FFF722FF4FF40050D9
:1005F000ADF8000069460748FFF71AFF06210448D6
:10060000FFF7ACFF4FF400510248FFF7A5FF08BD0C
:10061000000801400010014000BFFEE710B50121B5
:10062000080700F073FB0121C80600F06FFB0120F2
:1006300000F064FB0420FFF731FE4AF2A551884226
:1006400020D0012000F0A0FB00BF412000F07EFB85
:100650000128FAD1000200F0B7FB012000F0AEFB48
:1006600000F0F6FB00F0EAFB47F6FF7000F0D6FB67
:1006700000F0E4FB00F00CF84AF2A5510420FFF76B
:100680001BFE03E000F0E4FB00F0D8FB10BD00000F
:1006900010B58CB010480088A0F26C7006900E481F
:1006A0004088401E05900C48808804900A48C08805
:1006B000039009480089029007484089019001A8E9
:1006C000FFF732FDA0F5E144204600F099FB00F071
:1006D000B5FB0CB010BD000000000020704700000A
:1006E00002490143024A1160704700000000FA0508
:1006F0000CED00E000200CE0002106E00022064B9B
:1007000003EBC0135A544A1CD1B28029F6DB421CB9
:10071000D0B20828F0DB7047300000202DE9F0430C
:1007200004460D4616461F46284638E0224631E06C
:10073000002A2DDB7F2A2BDC002829DB3F2827DC41
:100740004FEAE07C00EB5C7C4FEAEC0CDFF8588071
:1007500008EBCC1C1CF802C003464FEAE07800EB23
:1007600058784FEAE808A0EBC8094FF0010808FAEA
:1007700009F82CEA080C01464FEAE07800EB5878BB
:100780004FEAE808DFF8209009EBC81808F802C023
:10079000511C0AB2A1199142CADC411C08B2E919E4
:1007A0008142C3DCBDE8F0833000002038B500246E
:1007B00006E0002500E06D1CB5F57A7FFBD3641CD4
:1007C000B4F57A7FF5D30121082000F0AFFA1420A8
:1007D0008DF8030003208DF802004FF48070ADF80F
:1007E000000069460848FFF723FE4FF40070ADF89B
:1007F000000069460448FFF71BFE012000F03EFAA6
:10080000012000F047FA38BD000C014070B50546E4
:10081000002411E080212141294009B1012100E09B
:100820000021084600F036FA012000F027FA0020E7
:1008300000F024FA601CC4B2082CEBDB012000F0AD
:100840001DFA002000F01AFA70BD10B5012000F06A
:1008500021FA012000F012FA002000F01BFA00201B
:1008600000F00CFA10BD10B5002000F013FA0120C2
:1008700000F004FA012000F00DFA10BD10B5FFF7EA
:1008800095FFAE2000F012FAD52000F00FFA80207C
:1008900000F00CFAA82000F009FA3F2000F006FA58
:1008A000D32000F003FA002000F000FA402000F00E
:1008B000FDF9A12000F0FAF9C82000F0F7F9DA20DC
:1008C00000F0F4F9122000F0F1F9812000F0EEF9C7
:1008D000CF2000F0EBF9D92000F0E8F9F12000F08A
:1008E000E5F9DB2000F0E2F9302000F0DFF9A42088
:1008F00000F0DCF9A62000F0D9F98D2000F0D6F93F
:10090000142000F0D3F9AF2000F0D0F9FFF7F2FE89
:1009100000F0A0F910BD70B505460C4645F0B000DA
:1009200000F0C4F9102141EA141000F0BFF904F0FE
:100930000F0000F0BBF970BDF8B506460F4614462F
:100940001D46082D0CD1A4F120000E4901EB00102A
:100950001023082239460090304600F017F80FE0C7
:10096000062D0DD1A4F1200000EB4000064901EB5B
:1009700040000823062239460090304600F006F871
:10098000F8BD00000A100008FA1500082DE9F04F24
:1009900080460D4691469B46002600245B464A460B
:1009A00029464046FFF7BAFE00BF61E000265BE043
:1009B00008EB0600002855DB08EB06007F2851DC19
:1009C0002946EA1705EB5272D21017B2EA1705EB67
:1009D0005272D210A5EBC20A002D05DA791E0FB2B1
:1009E0000AF108010FFA81FA04FB09620999885C8F
:1009F0002549097809B1C143C8B23919002913DB67
:100A00003919072910DC3919204A02EBC11108EB0A
:100A10000602895C00FA0AF211433A191B4B03EBF8
:100A2000C21208EB0603D1543919491C002918DBFE
:100A30003919491C072914DC3919491C134A02EBDE
:100A4000C11108EB0602895CCAF1080240FA02F201
:100A500011433A19521C0D4B03EBC21208EB06036B
:100A6000D15400BF701CC6B24E45A1DB601CC4B29D
:100A7000ABF10100C11700EB5171012202EBE10162
:100A8000A14293DCBDE8F08F2C0000203000002054
:100A90002DE9FE4F07468A46144698460025AB4688
:100AA0000026CBE0605D00F0800058B94FF0010BEC
:100AB0002846691C8DB2205C8DF8040000208DF85A
:100AC00005006BE0605D00F0E000C02814D14FF03D
:100AD000020B2846691C8DB2205C8DF80400605D15
:100AE00000B9AFE02846691C8DB2205C8DF8050086
:100AF00000208DF8060051E0605D00F0F000E02875
:100B00001DD14FF0030B2846691C8DB2205C8DF877
:100B10000400605D00B995E02846691C8DB2205C38
:100B20008DF80500605D00B98CE02846691C8DB227
:100B3000205C8DF8060000208DF807002EE0605D37
:100B400000F0F800F02826D14FF0040B2846691C6D
:100B50008DB2205C8DF80400605D00B972E028461B
:100B6000691C8DB2205C8DF80500605D00B969E0FC
:100B70002846691C8DB2205C8DF80600605D00B9C6
:100B800060E02846691C8DB2205C8DF807000020CB
:100B90008DF8080002E0681C85B24FE0BBF1010F40
:100BA0000BD19DF80420B91908B243465146FFF70E
:100BB000C3FE06EB080086B23FE04FF000090EE0EE
:100BC00009EB890101EB4911204A881801A9FFF7B7
:100BD000FFFA00B90EE009F101001FFA80F909EBF4
:100BE000890101EB4911194A881819A1FFF7F0FA98
:100BF0000028E5D100BFB8F1080F12D109EB890038
:100C000000EB491011490844401DB919009008B281
:100C100010231A465146FFF7B9FE06F1100086B2BE
:100C20000BE0B8F1060F08D1B91908B206233F222C
:100C30005146FFF781FEB01D86B200BF605D0028FF
:100C40007FF430AF00BFBDE8FE8F0000341800080D
:100C50000000000010B500240BE000212046FFF743
:100C60005AFE054901EBC410802100F02FF8601CEA
:100C7000C4B2082CF1DB10BD3000002010B50446D2
:100C800022464FF480710248FFF76AFC10BD000055
:100C9000000C014010B5044622464FF40071024892
:100CA000FFF75EFC10BD0000000C014010B50446CB
:100CB000FFF7CBFD7820FFF7A9FD0020FFF7A6FD89
:100CC0002046FFF7A3FDFFF7CEFD10BD70B505462A
:100CD0000E46FFF7BAFD7820FFF798FD4020FFF79A
:100CE00095FD002404E0285DFFF790FD601CC4B270
:100CF000B442F8DBFFF7B7FD70BD000001490862A0
:100D00007047000000000E427047000029B1064AFB
:100D1000D2690243044BDA6104E0034AD269824398
:100D2000014BDA61704700000010024029B1064A09
:100D300092690243044B9A6104E0034A9269824338
:100D4000014B9A61704700000010024010B5014647
:100D50000022002300204A11012A02D1094C2368F5
:100D600006E0022A02D1074C236A01E0054C636ABF
:100D700001F01F02012494401C400CB1012000E04E
:100D8000002010BD0010024000210B4A11700A4AD9
:100D9000203A82F82010012802D0042808D103E06C
:100DA0000121054A117004E00521034A117000E099
:100DB00000BF00BF704700002010024001490860DA
:100DC000704700003C0442420249096A0143014A5B
:100DD00011627047001002400348008840F0100084
:100DE000014908807047000004280040034800883B
:100DF0004FF6EF7108400149088070470428004011
:100E000000B50246FFF7E8FF100C03490880091DF2
:100E10000A80FFF7EBFF00BD1828004000B502462E
:100E2000FFF7DAFFC2F3034003490880091D0A8077
:100E3000FFF7DCFF00BD00000828004000BF0348AA
:100E4000008800F020000028F9D0704704280040F6
:100E5000074800884FF6F77108400549088000BF31
:100E60000348008800F008000028F9D0704700000F
:100E700004280040704710B500F002F810BD0000D3
:100E80000CB50020019000903348006840F4803099
:100E90003149086000BF3048006800F4003000901D
:100EA0000198401C0190009818B90198B0F5A06F06
:100EB000F1D12948006800F4003010B10120009001
:100EC00001E0002000900098012843D123480068E9
:100ED00040F01000214908600846006820F0030037
:100EE00008600846006840F0020008601A48406840
:100EF000194948600846406848600846406840F420
:100F0000806048600846406820F47C1048600846CD
:100F1000406840F4E81048600846006840F080707F
:100F2000086000BF0C48006800F000700028F9D08D
:100F30000948406820F003000749486008464068B7
:100F400040F00200486000BF0348406800F00C0019
:100F50000828F9D10CBD000000100240002002401A
:100F60007047000010B51348006840F001001149B7
:100F7000086008464068104908400E494860084625
:100F800000680E4908400B4908600846006820F4D4
:100F9000802008600846406820F4FE0048604FF456
:100FA0001F008860FFF767FF4FF00060044908608A
:100FB00010BD0000001002400000FFF8FFFFF6FE29
:100FC00008ED00E000BFFEE702E008C8121F08C1FC
:100FD000002AFAD170477047002001E001C1121FBA
:100FE000002AFBD170474FF4A060FFF779FBFFF7B1
:100FF000BFFAFFF7E5FAFFF76FF9FFF73FFCFFF7DE
:101000000DFBFFF785F900BFFEE7000000000000C0
:1010100000000000000000000000000000F80000D8
:101020000000000000333000000000160E00160E15
:101030000000000000000000000040C07840C078C0
:101040004000043F04043F040400007088FC0830A2
:101050000000001820FF211E0000F008F000E0183A
:10106000000000211C031E211E0000F008887000F3
:1010700000001E21232419272110000000160E0055
:1010800000000000000000000000000000E0180464
:101090000200000000071820400000020418E000D1
:1010A00000000040201807000000404080F0804011
:1010B00040000202010F01020200000000F00000E7
:1010C00000000101011F01010100000000000000FB
:1010D000000000B0700000000000000000000000F0
:1010E00000000001010101010101000000000000F9
:1010F00000000030300000000000000000008060B0
:101100001804006018060100000000E01008081034
:10111000E000000F102020100F00001010F8000059
:1011200000000020203F20200000007008080888F0
:1011300070000030282422213000003008888848C0
:1011400030000018202020110E000000C02010F8F0
:10115000000000070424243F240000F808888808C1
:1011600008000019212020110E0000E010888818C6
:101170000000000F112020110E0000380808C838A8
:1011800008000000003F0000000000708808088888
:101190007000001C222121221C0000E01008081011
:1011A000E0000000312222110F00000000C0C0004A
:1011B00000000000003030000000000000C0C0004F
:1011C0000000000080B0700000000000804020108F
:1011D0000800000102040810200040404040404048
:1011E00040000404040404040400000810204080AB
:1011F00000000020100804020100007048080808E0
:10120000F0000000003036010000C030C828E810AF
:10121000E0000718272423140B000000C038E0006A
:101220000000203C23020227382008F888888870B4
:101230000000203F202020110E00C03008080808C0
:101240003800071820202010080008F808080810A7
:10125000E000203F202020100F0008F88888E808D0
:101260001000203F20202320180008F88888E80874
:101270001000203F200003000000C030080808389C
:10128000000007182020221E020008F808000008AD
:10129000F808203F210101213F20000808F8080834
:1012A00000000020203F2020000000000808F8086F
:1012B0000800C08080807F00000008F888C02818DF
:1012C0000800203F20012638200008F80800000010
:1012D0000000203F20202020300008F8F800F8F817
:1012E0000800203F003F003F200008F830C0000801
:1012F000F808203F200007183F00E01008080810F9
:10130000E0000F10202020100F0008F8080808083F
:10131000F000203F210101010000E0100808081042
:10132000E0000F18242438504F0008F88888888877
:101330007000203F2000030C30200070880808084F
:1013400038000038202121221C00180808F808085D
:1013500018000000203F2000000008F808000008E6
:10136000F808001F202020201F000878880000C8EF
:101370003808000007380E010000F80800F80008DF
:10138000F800033C0700073C0300081868808068E9
:10139000180820302C03032C30200838C800C83827
:1013A00008000000203F2000000010080808C8388E
:1013B00008002038262120201800000000FE02022C
:1013C00002000000007F40404000000C30C00000E0
:1013D0000000000000010638C00000020202FE000A
:1013E0000000004040407F0000000020100804087A
:1013F00010200000000000000000000000000000BD
:1014000000008080808080808080000204080000CE
:1014100000000000000000000000000080808080CC
:1014200000000019242222223F2008F800808000BA
:101430000000003F112020110E000000008080807D
:101440000000000E11202020110000000080808884
:10145000F800000E112020103F20000080808080C6
:101460000000001F222222221300008080F08888C2
:1014700088180020203F202000000000808080800D
:101480008000006B94949493600008F80080808042
:101490000000203F210000203F200080989800009D
:1014A00000000020203F20200000000000809898CD
:1014B000000000C08080807F000008F8000080806D
:1014C0008000203F24022D302000000808F8000092
:1014D00000000020203F202000008080808080804D
:1014E0008000203F20003F20003F0080800080805F
:1014F000000000203F2100203F20000080808080ED
:101500000000001F202020201F008080008080001D
:10151000000080FFA12020110E00000000808080CC
:101520008000000E112020A0FF808080800080803D
:10153000800020203F21200001000000808080806A
:1015400080000033242424241900008080E080805F
:1015500000000000001F20200000808000000080AC
:101560008000001F202020103F208080800000800D
:10157000808000010E30080601008080008000801D
:1015800080800F300C030C300F00008080008080C2
:1015900080000020312E0E312000808080000080ED
:1015A000808080818E70180601000080808080809D
:1015B00080000021302C2221300000000000807CBF
:1015C000020200000000003F404000000000FF0059
:1015D000000000000000FF0000000002027C80000C
:1015E00000000040403F00000000008040408000BC
:1015F0000080000000000001010000000000000069
:101600000000002F000000000700070000147F14F6
:101610007F1400242A7F2A120023130864620036F4
:101620004955225000000007000000001C22410024
:10163000000041221C000014083E08140008083E67
:101640000808000000A06000000808080808000062
:1016500060600000002010080402003E5149453E31
:101660000000427F4000004261514946002141454F
:101670004B31001814127F10002745454539003CB6
:101680004A49493000017109050300364949493684
:1016900000064949291E0000363600000000563673
:1016A0000000000814224100001414141414000057
:1016B00041221408000201510906003E4955592EE5
:1016C000007C1211127C007F49494936003E41419D
:1016D0004122007F4141221C007F49494941007F4E
:1016E00009090901003E4149497A007F0808087F3D
:1016F0000000417F4100002040413F01007F08146D
:101700002241007F40404040007F020C027F007F6A
:101710000408107F003E4141413E007F090909064F
:10172000003E4151215E007F091929460046494982
:1017300049310001017F0101003F4040403F001F4F
:101740002040201F003F4038403F006314081463CE
:1017500000070870080700615149454300007F41B8
:101760004100000204081020000041417F000004F5
:101770000201020400404040404000000102040019
:10178000002054545478007F48444438003844447E
:10179000442000384444487F00385454541800080A
:1017A0007E0901020018A4A4A47C007F0804047828
:1017B0000000447D4000004080847D00007F1028B0
:1017C00044000000417F4000007C04180478007C45
:1017D0000804047800384444443800FC24242418C5
:1017E0000018242418FC007C080404080048545401
:1017F000542000043F444020003C4040207C001C1A
:101800002040201C003C4030403C0044281028442C
:10181000001CA0A0A07C004464544C440000087F3D
:1018200041000000007F00000000417F0800000828
:1018300004081008EFBC8C0000000000000000004D
:101840000000000000000000000000583800000008
:10185000000000000000000000E3808200000000A3
:101860000000000000000000000000000000000078
:101870001824241800000000000000000000E6AC5E
:10188000A2000004244484649C40300FC808082847
:1018900018000010080601824C20180601061820C6
:1018A000408000E8BF8E0000404042CC0000FC04B5
:1018B0000200FC0404FC00000040201F20404F44B4
:1018C00042407F4244434000E4BDBF00008060F8D6
:1018D0000704E4242424FF242424E404000000FF5B
:1018E0000080814529112F414181818000E794A822
:1018F00000000000FE22222222FE22222222FE00DE
:10190000000080601F020202027F020242827F000A
:101910000000E4B88700000404040404FC444444C8
:101920004444C40404040080402018060100004020
:1019300080403F00000000E5B9B40000002018C757
:1019400044444444FC444444440400000404040764
:1019500004040404FF04040404040400E58E860067
:10196000000000FE0242424242FA42424242C202A9
:101970000080601F804020180601004080403F002A
:1019800000E4BD9C0000008060F80740300FF8883C
:10199000888888080800010000FF00000000FF0898
:1019A000080808080000E88085000020202424247E
:1019B00024BF64243428242220200010080402FFBD
:1019C000494949494949FF00000000E5ADA600002A
:1019D000403011969090919690909814135030004A
:1019E000040404040444847E06050404040404007E
:1019F000E58FB70000808080BEA2A2A2A2A2A2A210
:101A0000BE80808000000000060504040444844475
:101A10003C00000000E78988000000FE20203F20F5
:101A200000FC24E4242223E20000807F0101FF80E7
:101A3000601F8041261826418000E69CAC00000013
:101A400010101010D030FF30D01010101000001007
:101A5000080402090808FF0808090204081000EF3A
:101A6000BC9A000000000000000000000000000020
:101A700000000000000036360000000000000000FA
:101A800000000000E7899F00000000109814121168
:101A9000D0101014183000000008080A09090909BC
:101AA000FF0909090909080800E5B3BB0000F000B7
:101AB000FF00F000109854931010549830001F103D
:101AC0000F081F808944462B122A46808100E6B009
:101AD000B800000040404848C809FAC400804020CF
:101AE000100000202010080641807F000304081029
:101AF0002020000000000000FF0101013109090958
:101B000009897101010101FFFF808080808080963A
:101B100081808080808080FFFF01818181FD8991AB
:101B2000A1C1FD81818101FFFF808080809F888429
:101B300082819F80808080FF1F1C1F1E1F1E1F1F11
:101B40001E1F1E1F1F1D1F1E1F1E1F1F1E1F1E1FAD
:101B50005765640054756500467269004D6F6E00EC
:101B600053756E0053617400546875008C1B000837
:101B70000000002030000000C80F0008BC1B000857
:101B80003000002000080000D80F0008E90704001A
:101B90000F000C000000000001000000601B0008A6
:101BA0005C1B0008541B0008501B0008681B000841
:0C1BB000581B0008641B00080000000027
:04000005080000ED02
:00000001FF
